S00B00004932432E737265635B
S11300000C942A000C9434000C9434000C943400A6
S11300100C9434000C9434000C9434000C9434008C
S11300200C9434000C9434000C9434000C9434007C
S11300300C9434000C9434000C9434000C9434006C
S11300400C9434000C9434000C9434000C9434005C
S11300500C94340011241FBECFE5D8E0DEBFCDBF21
S11300600E9436000C9494000C9400000E944100FD
S113007082E00E946C0081E60E9459000E944F00B9
S1130080FFCF80E280B981B18C7F81B981B181B920
S113009086B7846086BF86B7806486BF089586B7B6
S11300A0806186BF86B7806886BF06B607FEFDCF2F
S11300B0089583B986B7806886BF06B607FEFDCF6C
S11300C0089521B1287F30E0482F50E081E02417C3
S11300D0350709F080E00895CF93C82F86B7806272
S11300E086BF86B7806886BF06B607FEFDCF88E068
S11300F00E946100982F8823A1F0C150CC0FC3B98E
S1130100189886B7806886BF86B78F7D86BF06B687
S113011007FEFDCF88E10E94610091E0811101C0DA
S10F012090E0892FCF910895F894FFCF50
S9030000FC
