:100000000C942A000C9434000C9434000C943400AA
:100010000C9434000C9434000C9434000C94340090
:100020000C9434000C9434000C9434000C94340080
:100030000C9434000C9434000C9434000C94340070
:100040000C9434000C9434000C9434000C94340060
:100050000C94340011241FBECFE5D8E0DEBFCDBF25
:100060000E9436000C94EF000C94000040E064E025
:1000700081E00E94530040E065E081E00E9453006F
:1000800041E066E081E00E94530040E067E081E0EB
:100090000E9453000E94E7000E94EA00682F80E05F
:1000A0000E94D100FFCF41113CC0813099F028F06F
:1000B0008230E9F0833041F16EC02AB381E090E0F4
:1000C00002C0880F991F6A95E2F7809582238ABB48
:1000D00084E0089527B381E090E002C0880F991F63
:1000E0006A95E2F78095822387BB84E0089524B364
:1000F00081E090E002C0880F991F6A95E2F7809531
:10010000822384BB84E0089521B381E090E002C0A3
:10011000880F991F6A95E2F78095822381BB84E05E
:1001200008954130D1F5813091F028F08230D9F036
:10013000833029F134C02AB381E090E002C0880FF7
:10014000991F6A95E2F7822B8ABB84E0089527B352
:1001500081E090E002C0880F991F6A95E2F7822B38
:1001600087BB84E0089524B381E090E002C0880F4B
:10017000991F6A95E2F7822B84BB84E0089521B32E
:1001800081E090E002C0880F991F6A95E2F7822B08
:1001900081BB84E0089581E0089584E0089581E0C2
:1001A0000895813049F028F0823049F0833051F0D1
:1001B0000CC06BBB84E0089568BB84E0089565BB08
:1001C00084E0089562BB84E0089582E008956C980D
:1001D0006E9A08951FB8779BFECF8FB10895F8945B
:0201E000FFCF4F
:00000001FF
