:100000000C942A000C9434000C9434000C943400AA
:100010000C9434000C9434000C9434000C94340090
:100020000C9434000C9434000C9434000C94340080
:100030000C9434000C9434000C9434000C94340070
:100040000C9434000C9434000C9434000C94340060
:100050000C94340011241FBECFE5D8E0DEBFCDBF25
:100060000E9436000C94F1000C9400000E94DC0009
:100070000E94D5000E94D800682F80E00E94BF0037
:10008000FFCF41113CC0813099F028F08230E9F077
:10009000833041F16EC02AB381E090E002C0880F46
:1000A000991F6A95E2F7809582238ABB84E00895C0
:1000B00027B381E090E002C0880F991F6A95E2F7AC
:1000C0008095822387BB84E0089524B381E090E08B
:1000D00002C0880F991F6A95E2F78095822384BB3E
:1000E00084E0089521B381E090E002C0880F991F59
:1000F0006A95E2F78095822381BB84E008954130C0
:10010000D1F5813091F028F08230D9F0833029F197
:1001100034C02AB381E090E002C0880F991F6A952D
:10012000E2F7822B8ABB84E0089527B381E090E058
:1001300002C0880F991F6A95E2F7822B87BB84E083
:10014000089524B381E090E002C0880F991F6A955A
:10015000E2F7822B84BB84E0089521B381E090E034
:1001600002C0880F991F6A95E2F7822B81BB84E059
:10017000089581E0089584E0089581E00895813034
:1001800049F028F0823049F0833051F00CC06BBB4D
:1001900084E0089568BB84E0089565BB84E0089519
:1001A00062BB84E0089582E008956C986E9A089589
:1001B000779BFECF8FB1089540E064E081E00E941C
:1001C000410040E065E081E00E94410041E066E0DE
:1001D00081E00E94410040E067E081E00E94410030
:0601E0000895F894FFCF22
:00000001FF
