:100000000C942A000C9447000C9447000C94470071
:100010000C9447000C9447000C94AE020C945C02C4
:100020000C9485020C9433020C9447000C94D80174
:100030000C9447000C9447000C9447000C94470024
:100040000C9447000C9447000C9447000C94470014
:100050000C94470011241FBECFE5D8E0DEBFCDBF12
:1000600010E0A0E6B0E0EEE2F9E002C005900D92EB
:10007000A636B107D9F720E0A6E6B0E001C01D9290
:10008000A437B207E1F70E94F2000C9495040C9497
:100090000000411138C0813091F028F08230D9F051
:1000A000833029F108952AB381E090E002C0880FDF
:1000B000991F6A95E2F7809582238ABB089527B33A
:1000C00081E090E002C0880F991F6A95E2F7809561
:1000D000822387BB089524B381E090E002C0880F9B
:1000E000991F6A95E2F78095822384BB089521B316
:1000F00081E090E002C0880F991F6A95E2F7809531
:10010000822381BB0895413099F5813089F028F030
:100110008230C9F0833011F108952AB381E090E074
:1001200002C0880F991F6A95E2F7822B8ABB089557
:1001300027B381E090E002C0880F991F6A95E2F72B
:10014000822B87BB089524B381E090E002C0880F22
:10015000991F6A95E2F7822B84BB089521B381E051
:1001600090E002C0880F991F6A95E2F7822B81BB4D
:100170000895813089F028F08230C9F0833011F180
:1001800008952BB381E090E002C0880F991F6A9513
:10019000E2F782278BBB089528B381E090E002C08C
:1001A000880F991F6A95E2F7822788BB089525B3C7
:1001B00081E090E002C0880F991F6A95E2F78227DC
:1001C00085BB089522B381E090E002C0880F991F9B
:1001D0006A95E2F7822782BB089560E080E00E9482
:1001E000B900089541E060E080E00E94490040E0ED
:1001F00062E080E00E940D018DEE90E00E946E01B1
:1002000060E472E48FE090E00E9473010E94670155
:1002100061E081E00E94B900FBCF813071F028F0ED
:10022000823099F08330C9F020C083B78F7B83BFC1
:1002300083B7877F83BF81E019C083B7806483BFA2
:1002400083B7877F83BF81E011C083B78F7B83BF74
:1002500083B7886083BF81E009C083B7806483BFB0
:1002600083B7886083BF81E001C080E093B7987F47
:1002700093BF93B7962B93BF70E070936500609324
:100280006400413069F028F0423089F04330B1F029
:100290001CC093B79F7E93BF93B79F7D93BF089574
:1002A00093B7906193BF93B79F7D93BF089593B722
:1002B0009F7E93BF93B7906293BF089593B7906169
:1002C00093BF93B7906293BF089580E008958FB76E
:1002D00080688FBF89B7816089BF089590936B0054
:1002E00080936A000895CF92DF92EF92FF92CF93AE
:1002F00020916400309165002230310541F428E0FE
:1003000030E03093650020936400C1E022C02330C8
:10031000310541F420E430E030936500209364001F
:10032000C1E017C02430310541F420E031E03093C2
:10033000650020936400C1E00CC02530310541F414
:1003400020E034E03093650020936400C1E001C0F8
:10035000C0E00E9478036B017C01609164007091A1
:10036000650080E090E00E94780320E030E040E00B
:100370005EE30E9406049B01AC01C701B6010E9426
:10038000D7020E9449032AEF30E040E050E00E948B
:100390007304209360003093610040936200509397
:1003A00063008C2FCF91FF90EF90DF90CF90089556
:1003B0001F920F920FB60F9211242F933F934F93DA
:1003C0005F936F937F938F939F93AF93BF93EF93BD
:1003D000FF9386E082BF8091660090916700A091B4
:1003E0006800B09169000196A11DB11D809366005F
:1003F00090936700A0936800B0936900E0916A0051
:10040000F0916B003097F1F04091660050916700D9
:100410006091680070916900809160009091610026
:10042000A0916200B0916300481759076A077B07E3
:1004300049F40995109266001092670010926800C6
:1004400010926900FF91EF91BF91AF919F918F91B1
:100450007F916F915F914F913F912F910F900FBEC0
:100460000F901F9018951F920F920FB60F921124A4
:100470002F933F934F935F936F937F938F939F93AC
:10048000AF93BF93EF93FF93E0917200F0917300ED
:10049000309709F00995FF91EF91BF91AF919F912E
:1004A0008F917F916F915F914F913F912F910F901D
:1004B0000FBE0F901F9018951F920F920FB60F92BC
:1004C00011242F933F934F935F936F937F938F9359
:1004D0009F93AF93BF93EF93FF93E0917000F091E0
:1004E0007100309709F00995FF91EF91BF91AF919D
:1004F0009F918F917F916F915F914F913F912F913C
:100500000F900FBE0F901F9018951F920F920FB66D
:100510000F9211242F933F934F935F936F937F9389
:100520008F939F93AF93BF93EF93FF93E0916E00F0
:10053000F0916F00309709F00995FF91EF91BF910D
:10054000AF919F918F917F916F915F914F913F916B
:100550002F910F900FBE0F901F9018951F920F9222
:100560000FB60F9211242F933F934F935F936F9386
:100570007F938F939F93AF93BF93EF93FF93E091FC
:100580006C00F0916D00309709F00995FF91EF91A3
:10059000BF91AF919F918F917F916F915F914F919B
:1005A0003F912F910F900FBE0F901F9018950E94B2
:1005B000EB020C94CC030E94C50358F00E94BE03CA
:1005C00040F029F45F3F29F00C94B50351110C94CD
:1005D00000040C94BB030E94DD0368F39923B1F37C
:1005E000552391F3951B550BBB27AA276217730759
:1005F000840738F09F5F5F4F220F331F441FAA1FED
:10060000A9F335D00E2E3AF0E0E832D091505040A8
:10061000E695001CCAF72BD0FE2F29D0660F771F56
:10062000881FBB1F261737074807AB07B0E809F03C
:10063000BB0B802DBF01FF2793585F4F3AF09E3FC1
:10064000510578F00C94B5030C9400045F3FE4F37B
:10065000983ED4F3869577956795B795F7959F5F04
:10066000C9F7880F911D9695879597F90895E1E050
:10067000660F771F881FBB1F621773078407BA07AF
:1006800020F0621B730B840BBA0BEE1F88F7E0950A
:1006900008950E94E50388F09F5798F0B92F992795
:1006A000B751B0F0E1F0660F771F881F991F1AF05D
:1006B000BA95C9F714C0B13091F00E94FF03B1E0C0
:1006C00008950C94FF03672F782F8827B85F39F0BF
:1006D000B93FCCF3869577956795B395D9F73EF4F6
:1006E00090958095709561957F4F8F4F9F4F08959E
:1006F000E89409C097FB3EF49095809570956195BC
:100700007F4F8F4F9F4F9923A9F0F92F96E9BB2771
:100710009395F695879577956795B795F111F8CFED
:10072000FAF4BB0F11F460FF1BC06F5F7F4F8F4F58
:100730009F4F16C0882311F096E911C0772321F04E
:100740009EE8872F762F05C0662371F096E8862FE6
:1007500070E060E02AF09A95660F771F881FDAF73D
:10076000880F9695879597F9089597F99F6780E880
:1007700070E060E008959FEF80EC089500240A94F3
:100780001616170618060906089500240A9412166C
:100790001306140605060895092E0394000C11F49F
:1007A000882352F0BB0F40F4BF2B11F460FF04C04C
:1007B0006F5F7F4F8F4F9F4F089557FD9058440FA5
:1007C000551F59F05F3F71F04795880F97FB991FB0
:1007D00061F09F3F79F0879508951216130614066D
:1007E000551FF2CF4695F1DF08C0161617061806FA
:1007F000991FF1CF86957105610508940895E894D5
:10080000BB2766277727CB0197F908950E94190423
:100810000C94CC030E94BE0338F00E94C50320F064
:10082000952311F00C94B5030C94BB0311240C9484
:1008300000040E94DD0370F3959FC1F3950F50E013
:10084000551F629FF001729FBB27F00DB11D639F82
:10085000AA27F00DB11DAA1F649F6627B00DA11D28
:10086000661F829F2227B00DA11D621F739FB00DCE
:10087000A11D621F839FA00D611D221F749F33273E
:10088000A00D611D231F849F600D211D822F762FD7
:100890006A2F11249F5750409AF0F1F088234AF0B4
:1008A000EE0FFF1FBB1F661F771F881F9150504020
:1008B000A9F79E3F510580F00C94B5030C940004F9
:1008C0005F3FE4F3983ED4F3869577956795B795A7
:1008D000F795E7959F5FC1F7FE2B880F911D9695C1
:1008E000879597F90895A1E21A2EAA1BBB1BFD015B
:1008F0000DC0AA1FBB1FEE1FFF1FA217B307E407FF
:10090000F50720F0A21BB30BE40BF50B661F771F56
:10091000881F991F1A9469F7609570958095909536
:0E0920009B01AC01BD01CF010895F894FFCFFB
:06092E00010000000100C1
:00000001FF
