:100000000C942A000C9434000C9434000C943400AA
:100010000C9434000C9434000C9434000C94340090
:100020000C9434000C9434000C9434000C94340080
:100030000C9434000C9434000C9434000C94340070
:100040000C9434000C9434000C9434000C94340060
:100050000C94340011241FBECFE5D8E0DEBFCDBF25
:100060000E9436000C9491000C9400000E94430002
:100070000E946B008EE60E947D0081E60E9458007F
:100080000E944E00FFCF80E280B981B18C7F81B9A0
:1000900081B181B986B7846086BF089586B78061D3
:1000A00086BF86B7846086BF86B7806886BF08959E
:1000B00083B986B7806886BF06B607FEFDCF089570
:1000C00021B1287F30E0482F50E081E02417350728
:1000D00009F080E0089586B7806286BF86B78068A1
:1000E00086BF06B607FEFDCF88E00E94600091E063
:1000F000811101C090E0892F08958E7F83B986B762
:100100008F7D86BF86B7806886BF06B607FEFDCFA7
:1001100088E10E94600091E0811101C090E0892F88
:060120000895F894FFCFE2
:00000001FF
