:100000000C942A000C9434000C9434000C943400AA
:100010000C9434000C9434000C9434000C94340090
:100020000C9434000C9434000C9434000C94340080
:100030000C9434000C9434000C9434000C94340070
:100040000C9434000C9434000C9434000C94340060
:100050000C94340011241FBECFE5D8E0DEBFCDBF25
:100060000E9436000C94DF000C9400000E94CA002D
:100070000E94BC0081E60E94C500FFCF41113CC038
:10008000813099F028F08230E9F0833041F16EC080
:100090002AB381E090E002C0880F991F6A95E2F7C9
:1000A000809582238ABB84E0089527B381E090E0A5
:1000B00002C0880F991F6A95E2F78095822387BB5B
:1000C00084E0089524B381E090E002C0880F991F76
:1000D0006A95E2F78095822384BB84E0089521B37A
:1000E00081E090E002C0880F991F6A95E2F7809541
:1000F000822381BB84E008954130D1F5813091F0B5
:1001000028F08230D9F0833029F134C02AB381E05D
:1001100090E002C0880F991F6A95E2F7822B8ABB94
:1001200084E0089527B381E090E002C0880F991F12
:100130006A95E2F7822B87BB84E0089524B381E0BF
:1001400090E002C0880F991F6A95E2F7822B84BB6A
:1001500084E0089521B381E090E002C0880F991FE8
:100160006A95E2F7822B81BB84E0089581E00895CF
:1001700084E0089581E008956C9A6B986A9870986D
:10018000689869986E9A81E008958FB9779BFECF41
:100190008FB1089541E064E081E00E943E0041E0BB
:1001A00065E081E00E943E0040E066E081E00E9460
:1001B0003E0041E067E081E00E943E000895F8942F
:0201C000FFCF6F
:00000001FF
