S0140000547261666669634C696768742E7372656359
S11300000C942A000C9447000C9447000C9447006D
S11300100C9447000C9447000C9447000C94470040
S11300200C9447000C9447000C9447000C94470030
S11300300C9447000C9420020C9447000C94F90192
S11300400C9447000C9447000C9447000C94470010
S11300500C94470011241FBECFE5D8E0DEBFCDBF0E
S113006010E0A0E6B0E0E0EEF4E002C005900D92EE
S1130070A237B107D9F720E0A2E7B0E001C01D9292
S1130080A737B207E1F70E9449000C946E020C9462
S113009000000E944E000E945300FDCF0E949D006C
S11300A00E94D7010895CF93DF9300D000D000D0F1
S11300B0CDB7DEB7CE0101960E94440262E670E03D
S11300C0CE0101960E946502892B89F068E670E0F2
S11300D0CE0101960E946502892B99F06DE670E0CD
S11300E0CE0101960E946502892BA9F01DC080E013
S11300F00E94C40081E00E94C40082E00E94AD001E
S113010013C081E00E94C40082E00E94C40080E029
S11301100E94AD0009C080E00E94C40082E00E94F9
S1130120C40081E00E94AD0026960FB6F894DEBFAD
S11301300FBECDBFDF91CF91089541E060E080E034
S11301400E94590141E060E080E00E94590141E0D1
S113015060E080E00E9459010895811105C041E0EA
S113016060E00E94DB000895813031F441E061E0F9
S113017080E00E94DB000895823029F441E062E0CF
S113018080E00E94DB000895811105C040E060E03A
S11301900E94DB000895813031F440E061E080E0AA
S11301A00E94DB000895823029F440E062E080E0A0
S11301B00E94DB00089541113CC0813099F028F081
S11301C08230E9F0833041F16EC02BB381E090E0DE
S11301D002C0880F991F6A95E2F7809582238BBB32
S11301E084E0089528B381E090E002C0880F991F4D
S11301F06A95E2F78095822388BB84E0089525B34D
S113020081E090E002C0880F991F6A95E2F780951B
S1130210822385BB84E0089522B381E090E002C08C
S1130220880F991F6A95E2F78095822382BB84E048
S113023008954130D1F5813091F028F08230D9F021
S1130240833029F134C02BB381E090E002C0880FE1
S1130250991F6A95E2F7822B8BBB84E0089528B33B
S113026081E090E002C0880F991F6A95E2F7822B23
S113027088BB84E0089525B381E090E002C0880F34
S1130280991F6A95E2F7822B85BB84E0089522B317
S113029081E090E002C0880F991F6A95E2F7822BF3
S11302A082BB84E0089580E0089584E0089580E0AE
S11302B0089541113CC0813099F028F08230E9F072
S11302C0833041F16EC02AB381E090E002C0880F10
S11302D0991F6A95E2F7809582238ABB84E008958A
S11302E027B381E090E002C0880F991F6A95E2F776
S11302F08095822387BB84E0089524B381E090E055
S113030002C0880F991F6A95E2F78095822384BB07
S113031084E0089521B381E090E002C0880F991F22
S11303206A95E2F78095822381BB84E00895413089
S1130330D1F5813091F028F08230D9F0833029F161
S113034034C02AB381E090E002C0880F991F6A95F7
S1130350E2F7822B8ABB84E0089527B381E090E022
S113036002C0880F991F6A95E2F7822B87BB84E04D
S1130370089524B381E090E002C0880F991F6A9524
S1130380E2F7822B84BB84E0089521B381E090E0FE
S113039002C0880F991F6A95E2F7822B81BB84E023
S11303A0089581E0089584E0089581E0089580B57A
S11303B08F7780BD10BC83E389B9599880B5806874
S11303C080BD80B58F7E80BD80B58F7D80BD80B5BA
S11303D0806880BD80B5826080BD80B5846080BD4A
S11303E05298549A539A81E008955F9BFECF8CB142
S11303F008951F920F920FB60F9211248F93EF93CB
S1130400FF9380916000E0917500F0917600E80F11
S1130410F11D8081882339F08CB9809160008F5F51
S11304208093600005C081E0809360008093610048
S1130430FF91EF918F910F900FBE0F901F90189521
S11304401F920F920FB60F9211248F939F93EF93E5
S1130450FF93809172009CB1E0917300F09174005D
S1130460E80FF11D90838F5F833618F48093720038
S113047002C010927200FF91EF919F918F910F90A3
S11304800FBE0F901F901895EF92FF920F931F933A
S1130490CF937C010E94F501F7018083833261F0E0
S11304A0C0E0CF5F87010C0F111D0E94F501F80118
S11304B080838332B1F701C08701F8011082CF91A4
S11304C01F910F91FF90EF900895FB01DC018D9136
S11304D0019080190110D9F3990B0895F894FFCF76
S11304E0010173746172740073746F7000776169D1
S10504F0740092
S9030000FC
