:100000000C942A000C9447000C9447000C94470071
:100010000C9447000C9447000C9447000C94470044
:100020000C9447000C9447000C9447000C94470034
:100030000C9447000C942F020C9447000C94080277
:100040000C9447000C9447000C9447000C94470014
:100050000C94470011241FBECFE5D8E0DEBFCDBF12
:1000600010E0A0E6B0E0E0E3F5E002C005900D92FC
:10007000A23AB107D9F720E0A2EAB0E001C01D9290
:10008000A73AB207E1F70E9449000C9496020C943B
:1000900000000E944E000E945300FDCF0E94A80065
:1000A0000E94E2010895CF93DF9300D000D000D0EA
:1000B000CDB7DEB7CE0101960E946C0262E670E019
:1000C000CE0101960E948D02892B71F488E690E0A2
:1000D0000E94530280E00E94CF0081E00E94CF0086
:1000E00082E00E94B8002BC068E770E0CE01019664
:1000F0000E948D02892B71F48DE790E00E945302DB
:1001000081E00E94CF0082E00E94CF0080E00E9448
:10011000B80015C06BE870E0CE0101960E948D0218
:10012000892B69F480E990E00E94530280E00E94EC
:10013000CF0082E00E94CF0081E00E94B8002696A6
:100140000FB6F894DEBF0FBECDBFDF91CF910895FB
:1001500041E060E080E00E94640141E060E080E016
:100160000E94640141E060E080E00E946401089523
:10017000811105C041E060E00E94E60008958130F1
:1001800031F441E061E080E00E94E60008958230B1
:1001900029F441E062E080E00E94E60008958111C8
:1001A00005C040E060E00E94E6000895813031F42F
:1001B00040E061E080E00E94E6000895823029F48A
:1001C00040E062E080E00E94E600089541113CC0FA
:1001D000813099F028F08230E9F0833041F16EC02F
:1001E0002BB381E090E002C0880F991F6A95E2F777
:1001F000809582238BBB84E0089528B381E090E052
:1002000002C0880F991F6A95E2F78095822388BB08
:1002100084E0089525B381E090E002C0880F991F23
:100220006A95E2F78095822385BB84E0089522B326
:1002300081E090E002C0880F991F6A95E2F78095EF
:10024000822382BB84E008954130D1F5813091F062
:1002500028F08230D9F0833029F134C02BB381E00B
:1002600090E002C0880F991F6A95E2F7822B8BBB42
:1002700084E0089528B381E090E002C0880F991FC0
:100280006A95E2F7822B88BB84E0089525B381E06C
:1002900090E002C0880F991F6A95E2F7822B85BB18
:1002A00084E0089522B381E090E002C0880F991F96
:1002B0006A95E2F7822B82BB84E0089580E008957E
:1002C00084E0089580E0089541113CC0813099F0A8
:1002D00028F08230E9F0833041F16EC02AB381E02A
:1002E00090E002C0880F991F6A95E2F780958223FB
:1002F0008ABB84E0089527B381E090E002C0880FB4
:10030000991F6A95E2F78095822387BB84E0089560
:1003100024B381E090E002C0880F991F6A95E2F74C
:100320008095822384BB84E0089521B381E090E02E
:1003300002C0880F991F6A95E2F78095822381BBDE
:1003400084E008954130D1F5813091F028F0823079
:10035000D9F0833029F134C02AB381E090E002C0A3
:10036000880F991F6A95E2F7822B8ABB84E0089573
:1003700027B381E090E002C0880F991F6A95E2F7E9
:10038000822B87BB84E0089524B381E090E002C013
:10039000880F991F6A95E2F7822B84BB84E0089549
:1003A00021B381E090E002C0880F991F6A95E2F7BF
:1003B000822B81BB84E0089581E0089584E0089554
:1003C00081E0089580B58F7780BD10BC83E389B943
:1003D000599880B5806880BD80B58F7E80BD80B51E
:1003E0008F7D80BD80B5806880BD80B5826080BD16
:1003F00080B5846080BD5298549A539A81E00895E4
:100400005D9BFECF8CB908955F9BFECF8CB10895A4
:100410001F920F920FB60F9211248F93EF93FF93B9
:1004200080916000E091A500F091A600E80FF11D19
:100430008081882339F08CB9809160008F5F809330
:10044000600005C081E08093600080936100FF91AF
:10045000EF918F910F900FBE0F901F9018951F92E4
:100460000F920FB60F9211248F939F93EF93FF93E8
:100470008091A2009CB1E091A300F091A400E80F4C
:10048000F11D90838F5F833618F48093A20002C021
:100490001092A200FF91EF919F918F910F900FBE4C
:1004A0000F901F9018950F931F93CF938C01FC0111
:1004B0008081882351F0C0E00E940002CF5FF801E4
:1004C000EC0FF11D80818111F7CF8DE00E940002B9
:1004D000CF911F910F910895EF92FF920F931F9369
:1004E000CF937C010E940402F70180838D3061F07C
:1004F000C0E0CF5F87010C0F111D0E940402F801BC
:1005000080838D30B1F701C08701F8011082CF914F
:100510001F910F91FF90EF900895FB01DC018D91E9
:10052000019080190110D9F3990B0895F894FFCF29
:100530000101737461727400477265656E204C45E9
:1005400044206973206F6E0073746F70005265648D
:10055000204C4544206973206F6E007761697400F8
:1005600059656C6C6F77204C4544206973206F6E21
:02057000000089
:00000001FF
