:100000000C942A000C9447000C9447000C94470071
:100010000C9447000C9447000C9447000C94470044
:100020000C9447000C9447000C9447000C94470034
:100030000C9447000C94C4010C9447000C949D014F
:100040000C9447000C9447000C9447000C94470014
:100050000C94470011241FBECFE5D8E0DEBFCDBF12
:1000600010E0A0E6B0E0E4E8F4E002C005900D92F4
:10007000A236B107D9F720E0A2E6B0E001C01D9298
:10008000A736B207E1F70E9449000C9440020C9495
:100090000000CF93DF93CDB7DEB7CF5FD1090FB6A6
:1000A000F894DEBF0FBECDBF0E94E80140E067E0DC
:1000B00081E00E94720040E060E083E00E94F00076
:1000C00041E061E083E00E94F0000E947B010E9419
:1000D0006E01CE0101960E941F02CE0101960E9480
:1000E000FD01F7CF41113CC0813099F028F08230FA
:1000F000E9F0833041F16EC02BB381E090E002C0A3
:10010000880F991F6A95E2F7809582238BBB84E064
:10011000089528B381E090E002C0880F991F6A9586
:10012000E2F78095822388BB84E0089525B381E0BF
:1001300090E002C0880F991F6A95E2F780958223AC
:1001400085BB84E0089522B381E090E002C0880F6F
:10015000991F6A95E2F78095822382BB84E0089517
:100160004130D1F5813091F028F08230D9F08330E0
:1001700029F134C02BB381E090E002C0880F991FB1
:100180006A95E2F7822B8BBB84E0089528B381E067
:1001900090E002C0880F991F6A95E2F7822B88BB16
:1001A00084E0089525B381E090E002C0880F991F94
:1001B0006A95E2F7822B85BB84E0089522B381E043
:1001C00090E002C0880F991F6A95E2F7822B82BBEC
:1001D00084E0089580E0089584E0089580E0089523
:1001E00041113CC0813099F028F08230E9F0833031
:1001F00041F16EC02AB381E090E002C0880F991FE0
:100200006A95E2F7809582238ABB84E0089527B33C
:1002100081E090E002C0880F991F6A95E2F780950F
:10022000822387BB84E0089524B381E090E002C07C
:10023000880F991F6A95E2F78095822384BB84E03A
:10024000089521B381E090E002C0880F991F6A955C
:10025000E2F78095822381BB84E008954130D1F597
:10026000813091F028F08230D9F0833029F134C008
:100270002AB381E090E002C0880F991F6A95E2F7E7
:10028000822B8ABB84E0089527B381E090E002C00E
:10029000880F991F6A95E2F7822B87BB84E0089547
:1002A00024B381E090E002C0880F991F6A95E2F7BD
:1002B000822B84BB84E0089521B381E090E002C0EA
:1002C000880F991F6A95E2F7822B81BB84E008951D
:1002D00081E0089584E0089581E008956C9A6B9818
:1002E0006A987098689869986E9A81E008958FB9B5
:1002F000779BFECF089580B58F7780BD10BC83E3D8
:1003000089B9599880B5806880BD80B58F7E80BDE1
:1003100080B58F7D80BD80B5806880BD80B58260EE
:1003200080BD80B5846080BD5298549A539A81E014
:1003300008955F9BFECF8CB108951F920F920FB668
:100340000F9211248F93EF93FF9380916000E091BF
:100350006500F0916600E80FF11D8081882339F077
:100360008CB9809160008F5F8093600005C081E050
:100370008093600080936100FF91EF918F910F90C7
:100380000FBE0F901F9018951F920F920FB60F92ED
:1003900011248F939F93EF93FF93809162009CB100
:1003A000E0916300F0916400E80FF11D90838F5F8E
:1003B000833618F48093620002C010926200FF91AD
:1003C000EF919F918F910F900FBE0F901F901895F6
:1003D00041E064E081E00E94F00041E065E081E0FE
:1003E0000E94F00040E066E081E00E94F00041E001
:1003F00067E081E00E94F0000895EF92FF921F9362
:10040000CF93DF937C01FC0180810E947701F7018B
:100410008081882361F010E01F5FE701C10FD11DCB
:1004200088810E94770188818111F6CF01C0E701A0
:100430001882DF91CF911F91FF90EF900895EF9276
:10044000FF920F931F93CF937C010E949901F701B4
:1004500080838D3061F0C0E0CF5F87010C0F111DEC
:100460000E949901F80180838D30B1F701C08701A6
:10047000F8011082CF911F910F91FF90EF90089596
:04048000F894FFCF1E
:02048400010174
:00000001FF
