S00C0000554152542E73726563DC
S11300000C942A000C9447000C9447000C9447006D
S11300100C9447000C9447000C9447000C94470040
S11300200C9447000C9447000C9447000C94470030
S11300300C9447000C94B2000C9447000C948B0071
S11300400C9447000C9447000C9447000C94470010
S11300500C94470011241FBECFE5D8E0DEBFCDBF0E
S113006010E0A0E6B0E0EEE1F2E002C005900D92EF
S1130070A236B107D9F720E0A2E6B0E001C01D9294
S1130080A736B207E1F70E9449000C940D010C94C5
S11300900000CF93DF93CDB7DEB7C456D1090FB6B6
S11300A0F894DEBF0FBECDBF0E945F00CE01019663
S11300B00E94EC00CE0101960E94D600F7CF80B5D5
S11300C08F7780BD10BC83E389B9599880B5806867
S11300D080BD80B5877F80BD80B5806880BD80B5D8
S11300E08F7E80BD80B58F7D80BD80B5806880BDEA
S11300F080B5826080BD80B5846080BD5298549A7A
S1130100539A81E008955D9BFECF8CB908955F9B5F
S1130110FECF8CB108951F920F920FB60F92112447
S11301208F93EF93FF9380916000E0916500F091CD
S11301306600E80FF11D8081882339F08CB9809125
S113014060008F5F8093600005C081E08093600051
S113015080936100FF91EF918F910F900FBE0F90EC
S11301601F9018951F920F920FB60F9211248F9320
S11301709F93EF93FF93809162009CB1E0916300A1
S1130180F0916400E80FF11D90838F5F833618F4BB
S11301908093620002C010926200FF91EF919F91E0
S11301A08F910F900FBE0F901F9018950F931F9370
S11301B0CF93FC018081882359F08F01C0E00E9415
S11301C08300CF5FF801EC0FF11D80818111F7CF1F
S11301D0CF911F910F910895EF92FF920F931F9368
S11301E0CF937C010E948700F7018083833261F002
S11301F0C0E0CF5F87010C0F111D0E948700F8013A
S113020080838332B1F701C08701F8011082CF9156
S11102101F910F91FF90EF900895F894FFCF87
S105021E0101D8
S9030000FC
