S0100000493243536C6176652E737265635B
S11300000C942A000C9434000C9434000C943400A6
S11300100C9434000C9434000C9434000C9434008C
S11300200C9434000C9434000C9434000C9434007C
S11300300C9434000C9434000C9434000C9434006C
S11300400C9434000C9434000C9434000C9434005C
S11300500C94340011241FBECFE5D8E0DEBFCDBF21
S11300600E9436000C9489000C9400006FEF80E02D
S11300700E945B000E9471000E947E000E947E002C
S1130080682F80E00E944500FFCF813049F028F0BE
S1130090823049F0833051F00CC06BBB84E008958A
S11300A068BB84E0089565BB84E0089562BB84E086
S11300B0089582E00895813049F028F0823049F0B3
S11300C0833051F00CC06ABB84E0089567BB84E0C0
S11300D0089564BB84E0089561BB84E0089582E0E0
S11300E0089580E280B981B18C7F81B981B181B9F1
S11300F082E082B986B7846086BF089586B780643B
S113010086BF86B7806886BF06B607FEFDCF83B17B
S10901100895F894FFCFEE
S9030000FC
