:100000000C942A000C9447000C9447000C94470071
:100010000C9447000C9447000C9447000C94470044
:100020000C9447000C9447000C9447000C94470034
:100030000C9447000C943A010C9447000C94130163
:100040000C9447000C9447000C9447000C94470014
:100050000C94470011241FBECFE5D8E0DEBFCDBF12
:1000600010E0A0E6B0E0E2E7F3E002C005900D92F8
:10007000A236B107D9F720E0A2E6B0E001C01D9298
:10008000A736B207E1F70E9449000C94B7010C941F
:100090000000CF93DF93CDB7DEB7DA950FB6F894B3
:1000A000DEBF0FBECDBF0E945E0140E060E083E096
:1000B0000E946C0041E061E083E00E946C000E94BD
:1000C000F1000E94EA00CE0101960E947301CE0168
:1000D00001960E94A101F7CF41113CC0813099F0F7
:1000E00028F08230E9F0833041F16EC02AB381E01C
:1000F00090E002C0880F991F6A95E2F780958223ED
:100100008ABB84E0089527B381E090E002C0880FA5
:10011000991F6A95E2F78095822387BB84E0089552
:1001200024B381E090E002C0880F991F6A95E2F73E
:100130008095822384BB84E0089521B381E090E020
:1001400002C0880F991F6A95E2F78095822381BBD0
:1001500084E008954130D1F5813091F028F082306B
:10016000D9F0833029F134C02AB381E090E002C095
:10017000880F991F6A95E2F7822B8ABB84E0089565
:1001800027B381E090E002C0880F991F6A95E2F7DB
:10019000822B87BB84E0089524B381E090E002C005
:1001A000880F991F6A95E2F7822B84BB84E008953B
:1001B00021B381E090E002C0880F991F6A95E2F7B1
:1001C000822B81BB84E0089581E0089584E0089546
:1001D00081E008956C986E9A0895779BFECF8FB159
:1001E000089580B58F7780BD10BC83E389B9599895
:1001F00080B5806880BD80B58F7E80BD80B58F7DE5
:1002000080BD80B5806880BD80B5826080BD80B5CE
:10021000846080BD5298549A539A81E008955D9B02
:10022000FECF8CB908951F920F920FB60F92112432
:100230008F93EF93FF9380916000E0916500F091C0
:100240006600E80FF11D8081882339F08CB9809118
:1002500060008F5F8093600005C081E08093600044
:1002600080936100FF91EF918F910F900FBE0F90DF
:100270001F9018951F920F920FB60F9211248F9313
:100280009F93EF93FF93809162009CB1E091630094
:10029000F0916400E80FF11D90838F5F833618F4AE
:1002A0008093620002C010926200FF91EF919F91D3
:1002B0008F910F900FBE0F901F90189540E064E053
:1002C00081E00E946C0040E065E081E00E946C00EB
:1002D00041E066E081E00E946C0040E067E081E080
:1002E0000E946C000895CF92DF92EF92FF920F93DD
:1002F0001F93CF936C010E94ED00F60180838D3037
:1003000071F0C0E0CF5F0C2F10E07601E00EF11E1F
:100310000E94ED00F70180838D30A1F703C07601C4
:1003200000E010E08DE0F7018083F601E00FF11F9F
:100330001182CF911F910F91FF90EF90DF90CF909E
:1003400008950F931F93CF93FC018081882359F068
:100350008F01C0E00E940F01CF5FF801EC0FF11D8B
:1003600080818111F7CFCF911F910F910895F8945B
:02037000FFCFBD
:02037200010187
:00000001FF
