S0120000436172436F6E74726F6C2E737265631B
S11300000C942A000C9460040C9489040C94B2049B
S11300100C9447000C9447000C9422060C94D005D1
S11300200C94F9050C94A7050C9447000C944C050A
S11300300C9447000C9447000C9447000C94470020
S11300400C9447000C9447000C9447000C94470010
S11300500C94470011241FBECFE5D8E0DEBFCDBF0E
S113006010E0A0E6B0E0EAEEFCE002C005900D92DC
S1130070A836B107D9F720E0A8E6B0E001C01D9288
S1130080AF37B207E1F70E945C010C9473060C943D
S1130090000080916900811109C081E080936A00A9
S11300A0809169008F5F8093690008958091690051
S11300B0813049F482E080936A00809169008F5F07
S11300C080936900089580916900823049F483E047
S11300D080936A00809169008F5F8093690008951E
S11300E080916900833029F484E080936A0010923F
S11300F06900089580916000811104C081E08093BB
S11301006800089580916000813019F482E0809342
S11301106800089540E062E083E00E94DE0262E04D
S113012083E00E948D0340E063E083E00E94DE02EE
S113013063E083E00E948D0340E060E082E00E947F
S1130140DE0260E082E00E948D0340E061E082E034
S11301500E94DE0261E082E00E948D0341E063E0E0
S113016081E00E94DE0280E00E94DB0362E080E026
S11301700E94FB0381E00E94DB0362E081E00E94B5
S1130180FB0369E470E080E00E9446046AE770E0E3
S113019081E00E94460443E062E081E00E94DB04C7
S11301A00E946101089580E00E9435028823D9F1FC
S11301B080916A00813031F48EE10E94170210921E
S11301C0600031C080916A00823031F48CE30E9477
S11301D017021092600027C080916A00833031F4C6
S11301E08AE50E941702109260001DC080916A0087
S11301F08430C9F48EE10E94170281E0809360008C
S113020012C061E081E00E949901109260000BC06D
S113021080916800823039F461E081E00E94D80165
S113022081E08093600081E00E9435028130D1F446
S11302308091680080916800813051F7E2CF8EE1AF
S11302400E94170280916800813021F460E00E94CE
S1130250990108C080916800823021F460E081E057
S11302600E94D80182E00E9435028130C9F4809155
S113027068008111E4CF14C08EE10E9417028091BE
S11302806800813029F461E080E00E94990108C08F
S113029080916800823021F461E080E00E94D801FE
S11302A083E00E943502813021F48091680081113D
S11302B0E3CF0E941B0208950E948A000E94D3008B
S11302C0FDCF41E060E081E00E94DE0241E062E0B7
S11302D081E00E94DE0241E063E081E00E94DE02F0
S11302E041E064E081E00E94DE0241E065E081E0FB
S11302F00E94DE0241E063E081E00E94DE0241E010
S113030065E083E00E94DE0241E066E083E00E9453
S1130310DE0241E063E083E00E94DE0241E065E04A
S113032083E00E94600240E066E083E00E94600295
S11303300895CF93C62F813079F441E060E00E94A4
S1130340600240E062E081E00E94600241E063E01C
S113035081E00E9460020CC081110AC040E062E0AA
S113036081E00E94600240E062E081E00E9460025D
S1130370C13081F441E064E081E00E94600240E029
S113038065E081E00E94600241E063E081E00E9458
S113039060020CC0C1110AC040E065E081E00E9427
S11303A0600240E065E081E00E946002CF91089520
S11303B0CF93C62F813079F440E060E00E94600260
S11303C041E062E081E00E94600241E063E081E09C
S11303D00E9460020CC081110AC040E060E081E02C
S11303E00E94600240E062E081E00E946002C1304D
S11303F081F440E064E081E00E94600241E065E055
S113040081E00E94600241E063E081E00E946002BA
S11304100CC0C1110AC040E064E081E00E946002A7
S113042040E065E081E00E946002CF91089563E0BE
S11304300E943505089540E060E081E00E9460027A
S113044040E062E081E00E94600240E064E081E01C
S11304500E94600240E065E081E00E94600240E0AA
S113046063E081E00E9460020895811109C062E0A6
S113047083E00E945C0391E0882301F190E01EC0B8
S1130480813049F463E083E00E945C0391E08823B7
S1130490A9F090E013C0823041F460E00E945C0354
S11304A091E0882359F090E009C0833039F461E089
S11304B082E00E945C0391E0811190E0892F08950D
S11304C041113CC0813099F028F08230E9F083304A
S11304D041F16EC02BB381E090E002C0880F991FF8
S11304E06A95E2F7809582238BBB84E0089528B354
S11304F081E090E002C0880F991F6A95E2F7809529
S1130500822388BB84E0089525B381E090E002C093
S1130510880F991F6A95E2F78095822385BB84E052
S1130520089522B381E090E002C0880F991F6A9574
S1130530E2F78095822382BB84E008954130D1F5AF
S1130540813091F028F08230D9F0833029F134C021
S11305502BB381E090E002C0880F991F6A95E2F7FF
S1130560822B8BBB84E0089528B381E090E002C025
S1130570880F991F6A95E2F7822B88BB84E008955F
S113058025B381E090E002C0880F991F6A95E2F7D5
S1130590822B85BB84E0089522B381E090E002C001
S11305A0880F991F6A95E2F7822B82BB84E0089535
S11305B080E0089584E0089580E0089541113CC0EE
S11305C0813099F028F08230E9F0833041F16EC037
S11305D02AB381E090E002C0880F991F6A95E2F780
S11305E0809582238ABB84E0089527B381E090E05C
S11305F002C0880F991F6A95E2F78095822387BB12
S113060084E0089524B381E090E002C0880F991F2C
S11306106A95E2F78095822384BB84E0089521B330
S113062081E090E002C0880F991F6A95E2F78095F7
S1130630822381BB84E008954130D1F5813091F06B
S113064028F08230D9F0833029F134C02AB381E014
S113065090E002C0880F991F6A95E2F7822B8ABB4B
S113066084E0089527B381E090E002C0880F991FC9
S11306706A95E2F7822B87BB84E0089524B381E076
S113068090E002C0880F991F6A95E2F7822B84BB21
S113069084E0089521B381E090E002C0880F991F9F
S11306A06A95E2F7822B81BB84E0089581E0089586
S11306B084E0089581E00895813081F028F082304B
S11306C0B9F08330F9F027C089B390E002C0959562
S11306D087956A95E2F7982F91701DC086B390E0D4
S11306E002C0959587956A95E2F7982F917013C08B
S11306F083B390E002C0959587956A95E2F7982FA9
S1130700917009C080B390E002C0959587956A9571
S1130710E2F7982F9170892F08958130B9F028F06D
S1130720823029F18330A1F144C02AB381E090E002
S113073002C0880F991F6A95E2F7982F909592232B
S11307409ABB9BB3892B8BBB84E0089527B381E0CC
S113075090E002C0880F991F6A95E2F7982F909550
S1130760922397BB98B3892B88BB84E0089524B364
S113077081E090E002C0880F991F6A95E2F7982FF4
S11307809095922394BB95B3892B85BB84E00895FF
S113079021B381E090E002C0880F991F6A95E2F7C7
S11307A0982F9095922391BB92B3892B82BB84E0BE
S11307B0089582E00895813061F018F0823089F064
S11307C018C08BB780648BBF8FB780688FBF80E001
S11307D008958BB780688BBF8FB780688FBF80E028
S11307E008958BB780628BBF8FB780688FBF80E01E
S11307F0089581E00895813061F018F0823089F124
S11308003FC085B78C7F85BF85B7682B65BF80E007
S11308100895613071F028F0623099F06330C9F0C6
S113082031C085B78B7F85BF85B7877F85BF80E063
S1130830089585B7846085BF85B7877F85BF80E0CD
S1130840089585B78B7F85BF85B7886085BF80E0B5
S1130850089585B7846085BF85B7886085BF80E0CB
S11308600895623019F0633031F00EC084B78F7B85
S113087084BF80E0089584B7806484BF80E00895D5
S113088081E0089581E0089581E00895813051F078
S113089018F0823069F012C07093700060936F009A
S11308A080E0089570936E0060936D0080E0089579
S11308B070936C0060936B0080E0089581E008956C
S11308C01F920F920FB60F9211242F933F934F93C1
S11308D05F936F937F938F939F93AF93BF93EF93A4
S11308E0FF93E0916F00F0917000309709F0099543
S11308F0FF91EF91BF91AF919F918F917F916F91F4
S11309005F914F913F912F910F900FBE0F901F90C9
S113091018951F920F920FB60F9211242F933F93A5
S11309204F935F936F937F938F939F93AF93BF93F3
S1130930EF93FF93E0916D00F0916E00309709F012
S11309400995FF91EF91BF91AF919F918F917F9105
S11309506F915F914F913F912F910F900FBE0F9028
S11309601F9018951F920F920FB60F9211242F9378
S11309703F934F935F936F937F938F939F93AF9323
S1130980BF93EF93FF93E0916B00F0916C0030976D
S113099009F00995FF91EF91BF91AF919F918F91CC
S11309A07F916F915F914F913F912F910F900FBE67
S11309B00F901F901895813071F028F0823099F0D3
S11309C08330C9F020C083B78F7B83BF83B7877F11
S11309D083BF80E019C083B7806483BF83B7877FF8
S11309E083BF80E011C083B78F7B83BF83B78860E8
S11309F083BF80E009C083B7806483BF83B7886006
S1130A0083BF80E001C081E093B7987F93BF93B721
S1130A10962B93BF70E0709366006093650041303D
S1130A2069F028F0423089F04330B1F01CC093B72C
S1130A309F7E93BF93B79F7D93BF089593B79061B3
S1130A4093BF93B79F7D93BF089593B79F7E93BF42
S1130A5093B7906293BF089593B7906193BF93B790
S1130A60906293BF089581E00895633049F4982F0C
S1130A7080E064E670E00E944B0660956CBF0895C8
S1130A80623049F42FEF829FC001112464E670E0C4
S1130A900E944B066CBF08951F920F920FB60F92DF
S1130AA011242F933F934F935F936F937F938F936F
S1130AB09F93AF93BF93EF93FF9386E082BF8091A0
S1130AC0710090917200A0917300B091740001962E
S1130AD0A11DB11D8093710090937200A0937300C7
S1130AE0B0937400E0917500F09176003097F1F0C6
S1130AF04091710050917200609173007091740084
S1130B008091610090916200A0916300B0916400B3
S1130B10481759076A077B0749F409951092710031
S1130B20109272001092730010927400FF91EF9172
S1130B30BF91AF919F918F917F916F915F914F91F1
S1130B403F912F910F900FBE0F901F9018951F92F9
S1130B500F920FB60F9211242F933F934F935F93ED
S1130B606F937F938F939F93AF93BF93EF93FF9371
S1130B70E0917D00F0917E00309709F00995FF9196
S1130B80EF91BF91AF919F918F917F916F915F9101
S1130B904F913F912F910F900FBE0F901F9018957A
S1130BA01F920F920FB60F9211242F933F934F93DE
S1130BB05F936F937F938F939F93AF93BF93EF93C1
S1130BC0FF93E0917B00F0917C00309709F0099548
S1130BD0FF91EF91BF91AF919F918F917F916F9111
S1130BE05F914F913F912F910F900FBE0F901F90E7
S1130BF018951F920F920FB60F9211242F933F93C3
S1130C004F935F936F937F938F939F93AF93BF9310
S1130C10EF93FF93E0917900F0917A00309709F017
S1130C200995FF91EF91BF91AF919F918F917F9122
S1130C306F915F914F913F912F910F900FBE0F9045
S1130C401F9018951F920F920FB60F9211242F9395
S1130C503F934F935F936F937F938F939F93AF9340
S1130C60BF93EF93FF93E0917700F0917800309772
S1130C7009F00995FF91EF91BF91AF919F918F91E9
S1130C807F916F915F914F913F912F910F900FBE84
S1130C900F901F90189597FB072E16F4009407D019
S1130CA077FD09D00E945F0607FC05D03EF49095BD
S1130CB081959F4F0895709561957F4F0895AA1B64
S1130CC0BB1B51E107C0AA1FBB1FA617B70710F033
S1130CD0A61BB70B881F991F5A95A9F78095909565
S10D0CE0BC01CD010895F894FFCF84
S10B0CEAFF01000000010000FD
S9030000FC
