S0120000436172436F6E74726F6C2E737265631B
S11300000C942A000C945A040C9483040C94AC04AD
S11300100C9447000C9447000C941C060C94CA05DD
S11300200C94F3050C94A1050C9447000C9446051C
S11300300C9447000C9447000C9447000C94470020
S11300400C9447000C9447000C9447000C94470010
S11300500C94470011241FBECFE5D8E0DEBFCDBF0E
S113006010E0A0E6B0E0EEEDFCE002C005900D92D9
S1130070A836B107D9F720E0A8E6B0E001C01D9288
S1130080AF37B207E1F70E9489010C946D060C9416
S1130090000041E060E081E00E94D80241E062E0BB
S11300A081E00E94D80241E063E081E00E94D8022E
S11300B041E064E081E00E94D80241E065E081E033
S11300C00E94D80241E063E081E00E94D80241E04E
S11300D065E083E00E94D80241E066E083E00E948C
S11300E0D80241E063E083E00E94D80241E065E089
S11300F083E00E945A0240E066E083E00E945A02D4
S11301000895CF93C62F813079F441E060E00E94D6
S11301105A0240E062E081E00E945A0241E063E05A
S113012081E00E945A020CC081110AC040E062E0E2
S113013081E00E945A0240E062E081E00E945A029B
S1130140C13081F441E064E081E00E945A0240E061
S113015065E081E00E945A0241E063E081E00E9490
S11301605A020CC0C1110AC040E065E081E00E945F
S11301705A0240E065E081E00E945A02CF9108955E
S1130180CF93C62F813079F440E060E00E945A0298
S113019041E062E081E00E945A0241E063E081E0D4
S11301A00E945A020CC081110AC040E060E081E064
S11301B00E945A0240E062E081E00E945A02C1308B
S11301C081F440E064E081E00E945A0241E065E08D
S11301D081E00E945A0241E063E081E00E945A02F9
S11301E00CC0C1110AC040E064E081E00E945A02E0
S11301F040E065E081E00E945A02CF91089563E0F7
S11302000E942F05089540E060E081E00E945A02B8
S113021040E062E081E00E945A0240E064E081E054
S11302200E945A0240E065E081E00E945A0240E0E8
S113023063E081E00E945A020895811109C062E0DE
S113024083E00E94560391E0882301F190E01EC0F0
S1130250813049F463E083E00E94560391E08823EF
S1130260A9F090E013C0823041F460E00E9456038C
S113027091E0882359F090E009C0833039F461E0BB
S113028082E00E94560391E0811190E0892F089545
S113029080916900811109C081E080936A00809196
S11302A069008F5F809369000895809169008130AF
S11302B049F482E080936A00809169008F5F8093A3
S11302C06900089580916900823049F483E0809345
S11302D06A00809169008F5F80936900089580911E
S11302E06900833029F484E080936A0010926900E5
S11302F0089580916000811104C081E080936800BA
S1130300089580916000813019F482E08093680040
S1130310089540E062E083E00E94D80262E083E056
S11303200E94870340E063E083E00E94D80263E018
S113033083E00E94870340E060E082E00E94D802EC
S113034060E082E00E94870340E061E082E00E9476
S1130350D80261E082E00E94870341E063E081E02B
S11303600E94D80280E00E94D50362E080E00E94EF
S1130370F50381E00E94D50362E081E00E94F50369
S113038068E471E080E00E94400469E771E081E084
S11303900E94400443E062E081E00E94D5040E9490
S11303A04900C1E080E00E941D018823C9F18091C9
S11303B06A00813031F48EE10E94FF0010926000E7
S11303C02FC080916A00823031F48CE30E94FF00D8
S11303D01092600025C080916A00833031F48AE570
S11303E00E94FF00109260001BC080916A0084305C
S11303F0B9F48EE10E94FF00C093600011C06C2F1D
S11304008C2F0E948100109260000AC080916800C5
S1130410823031F46C2F8C2F0E94C000C093600096
S11304208C2F0E941D018130D9F480916800809145
S11304306800813059F7E3CF8EE10E94FF0080917C
S11304406800813029F460E08C2F0E94810008C08C
S113045080916800823021F460E08C2F0E94C000FB
S113046082E00E941D018130C9F4809168008111ED
S1130470E3CF14C08EE10E94FF00809168008130B8
S113048029F46C2F80E00E94810008C080916800EC
S1130490823021F46C2F80E00E94C00083E00E942F
S11304A01D01813021F4809168008111E3CF0E9405
S11304B0030178CF41113CC0813099F028F082309B
S11304C0E9F0833041F16EC02BB381E090E002C0CB
S11304D0880F991F6A95E2F7809582238BBB84E08D
S11304E0089528B381E090E002C0880F991F6A95AF
S11304F0E2F78095822388BB84E0089525B381E0E8
S113050090E002C0880F991F6A95E2F780958223D4
S113051085BB84E0089522B381E090E002C0880F97
S1130520991F6A95E2F78095822382BB84E008953F
S11305304130D1F5813091F028F08230D9F0833008
S113054029F134C02BB381E090E002C0880F991FD9
S11305506A95E2F7822B8BBB84E0089528B381E08F
S113056090E002C0880F991F6A95E2F7822B88BB3E
S113057084E0089525B381E090E002C0880F991FBC
S11305806A95E2F7822B85BB84E0089522B381E06B
S113059090E002C0880F991F6A95E2F7822B82BB14
S11305A084E0089580E0089584E0089580E008954B
S11305B041113CC0813099F028F08230E9F0833059
S11305C041F16EC02AB381E090E002C0880F991F08
S11305D06A95E2F7809582238ABB84E0089527B365
S11305E081E090E002C0880F991F6A95E2F7809538
S11305F0822387BB84E0089524B381E090E002C0A5
S1130600880F991F6A95E2F78095822384BB84E062
S1130610089521B381E090E002C0880F991F6A9584
S1130620E2F78095822381BB84E008954130D1F5BF
S1130630813091F028F08230D9F0833029F134C030
S11306402AB381E090E002C0880F991F6A95E2F70F
S1130650822B8ABB84E0089527B381E090E002C036
S1130660880F991F6A95E2F7822B87BB84E008956F
S113067024B381E090E002C0880F991F6A95E2F7E5
S1130680822B84BB84E0089521B381E090E002C012
S1130690880F991F6A95E2F7822B81BB84E0089545
S11306A081E0089584E0089581E00895813081F027
S11306B028F08230B9F08330F9F027C089B390E094
S11306C002C0959587956A95E2F7982F91701DC0A1
S11306D086B390E002C0959587956A95E2F7982FC6
S11306E0917013C083B390E002C0959587956A9585
S11306F0E2F7982F917009C080B390E002C09595FD
S113070087956A95E2F7982F9170892F0895813023
S1130710B9F028F0823029F18330A1F144C02AB322
S113072081E090E002C0880F991F6A95E2F7982F44
S1130730909592239ABB9BB3892B8BBB84E008953D
S113074027B381E090E002C0880F991F6A95E2F711
S1130750982F9095922397BB98B3892B88BB84E0FC
S1130760089524B381E090E002C0880F991F6A9530
S1130770E2F7982F9095922394BB95B3892B85BB70
S113078084E0089521B381E090E002C0880F991FAE
S11307906A95E2F7982F9095922391BB92B3892B97
S11307A082BB84E0089582E00895813061F018F0FE
S11307B0823089F018C08BB780648BBF8FB7806894
S11307C08FBF80E008958BB780688BBF8FB7806838
S11307D08FBF80E008958BB780628BBF8FB780682E
S11307E08FBF80E0089581E00895813061F018F0B2
S11307F0823089F13FC085B78C7F85BF85B7682B70
S113080065BF80E00895613071F028F0623099F09E
S11308106330C9F031C085B78B7F85BF85B7877FCB
S113082085BF80E0089585B7846085BF85B7877FDD
S113083085BF80E0089585B78B7F85BF85B78860C5
S113084085BF80E0089585B7846085BF85B78860DB
S113085085BF80E00895623019F0633031F00EC036
S113086084B78F7B84BF80E0089584B7806484BF9D
S113087080E0089581E0089581E0089581E008957D
S1130880813051F018F0823069F012C0709370001A
S113089060936F0080E0089570936E0060936D0024
S11308A080E0089570936C0060936B0080E008957D
S11308B081E008951F920F920FB60F9211242F9387
S11308C03F934F935F936F937F938F939F93AF93D4
S11308D0BF93EF93FF93E0916F00F0917000309716
S11308E009F00995FF91EF91BF91AF919F918F917D
S11308F07F916F915F914F913F912F910F900FBE18
S11309000F901F9018951F920F920FB60F921124FB
S11309102F933F934F935F936F937F938F939F9303
S1130920AF93BF93EF93FF93E0916D00F0916E004E
S1130930309709F00995FF91EF91BF91AF919F9185
S11309408F917F916F915F914F913F912F910F9074
S11309500FBE0F901F9018951F920F920FB60F9213
S113096011242F933F934F935F936F937F938F93B0
S11309709F93AF93BF93EF93FF93E0916B00F0913C
S11309806C00309709F00995FF91EF91BF91AF91F9
S11309909F918F917F916F915F914F913F912F9193
S11309A00F900FBE0F901F901895813071F028F0B2
S11309B0823099F08330C9F020C083B78F7B83BF26
S11309C083B7877F83BF80E019C083B7806483BF08
S11309D083B7877F83BF80E011C083B78F7B83BFDA
S11309E083B7886083BF80E009C083B7806483BF16
S11309F083B7886083BF80E001C081E093B7987FAC
S1130A0093BF93B7962B93BF70E070936600609387
S1130A106500413069F028F0423089F04330B1F08C
S1130A201CC093B79F7E93BF93B79F7D93BF0895D8
S1130A3093B7906193BF93B79F7D93BF089593B786
S1130A409F7E93BF93B7906293BF089593B79061CD
S1130A5093BF93B7906293BF089581E00895633084
S1130A6049F4982F80E064E670E00E9445066095A2
S1130A706CBF0895623049F42FEF829FC0011124A6
S1130A8064E670E00E9445066CBF08951F920F92C1
S1130A900FB60F9211242F933F934F935F936F934D
S1130AA07F938F939F93AF93BF93EF93FF9386E0CE
S1130AB082BF8091710090917200A0917300B091F7
S1130AC074000196A11DB11D809371009093720072
S1130AD0A0937300B0937400E0917500F0917600D8
S1130AE03097F1F040917100509172006091730061
S1130AF0709174008091610090916200A0916300F4
S1130B00B0916400481759076A077B0749F40995AF
S1130B10109271001092720010927300109274007F
S1130B20FF91EF91BF91AF919F918F917F916F91C1
S1130B305F914F913F912F910F900FBE0F901F9097
S1130B4018951F920F920FB60F9211242F933F9373
S1130B504F935F936F937F938F939F93AF93BF93C1
S1130B60EF93FF93E0917D00F0917E00309709F0C0
S1130B700995FF91EF91BF91AF919F918F917F91D3
S1130B806F915F914F913F912F910F900FBE0F90F6
S1130B901F9018951F920F920FB60F9211242F9346
S1130BA03F934F935F936F937F938F939F93AF93F1
S1130BB0BF93EF93FF93E0917B00F0917C0030971B
S1130BC009F00995FF91EF91BF91AF919F918F919A
S1130BD07F916F915F914F913F912F910F900FBE35
S1130BE00F901F9018951F920F920FB60F92112419
S1130BF02F933F934F935F936F937F938F939F9321
S1130C00AF93BF93EF93FF93E0917900F0917A0053
S1130C10309709F00995FF91EF91BF91AF919F91A2
S1130C208F917F916F915F914F913F912F910F9091
S1130C300FBE0F901F9018951F920F920FB60F9230
S1130C4011242F933F934F935F936F937F938F93CD
S1130C509F93AF93BF93EF93FF93E0917700F0914D
S1130C607800309709F00995FF91EF91BF91AF910A
S1130C709F918F917F916F915F914F913F912F91B0
S1130C800F900FBE0F901F90189597FB072E16F428
S1130C90009407D077FD09D00E94590607FC05D0BF
S1130CA03EF4909581959F4F0895709561957F4F7F
S1130CB00895AA1BBB1B51E107C0AA1FBB1FA6179F
S1130CC0B70710F0A61BB70B881F991F5A95A9F7F1
S1110CD080959095BC01CD010895F894FFCF56
S10B0CDEFF0100000001000009
S9030000FC
